:020000040800F2
:10000000F809002029020008CF200008411F00083D
:10001000CD200008C70400083927000800000000B0
:10002000000000000000000000000000572200084F
:10003000F1050008000000005522000859220008C0
:10004000430200084302000843020008430200087C
:10005000430200084302000843020008430200086C
:10006000430200084302000843020008430200085C
:100070001D05000843020008290500084302000886
:10008000430200084302000843020008430200083C
:10009000C9040008430200084302000843020008A4
:1000A000430200084302000843020008430200081C
:1000B000430200084302000843020008430200080C
:1000C00043020008430200084302000843020008FC
:1000D0004302000821270008430200082D270008DA
:1000E00043020008430200084302000843020008DC
:1000F00043020008430200084302000843020008CC
:1001000043020008430200084302000843020008BB
:1001100043020008430200084302000843020008AB
:1001200043020008430200083505000843020008A6
:10013000430200084302000843020008430200088B
:10014000430200084302000843020008430200087B
:10015000430200084302000841050008430200086A
:10016000430200084302000843020008430200085B
:100170004302000843020008430200080000000098
:10018000430200084302000800F002F800F03CF8C7
:100190000AA090E8000C82448344AAF10107DA45E2
:1001A00001D100F031F8AFF2090EBAE80F0013F0F8
:1001B000010F18BFFB1A43F001031847042C00007D
:1001C000242C0000103A24BF78C878C1FAD852070E
:1001D00024BF30C830C144BF04680C6070470000C1
:1001E0000023002400250026103A28BF78C1FBD840
:1001F000520728BF30C148BF0B6070471FB502F0DF
:10020000C9FD1FBD10B510BD00F023F91146FFF761
:10021000F5FF02F0D9FB00F041F903B4FFF7F2FF5C
:1002200003BC00F049F9000009488047094800472D
:10023000FEE7FEE7FEE7FEE7FEE7FEE7FEE7FEE796
:10024000FEE7FEE704480549054A064B70470000F3
:10025000F122000889010008F8030020F8090020B5
:10026000F8050020F805002053EA020C00F0698030
:100270002DE9F04B4FF00006002B1FBFB3FA83F5BA
:1002800003FA05F424FA05F65E4012BF1643B2FAEB
:1002900082F502FA05F4C5F120051EBF22FA05FC1D
:1002A00044EA0C04203556EA044C4FEA144418BFC3
:1002B000641C4FF000084FF00009904271EB030CF2
:1002C00039D3002919BFB1FA81F701FA07F6B0FA5C
:1002D00080F700FA07F6C7F120071EBF20FA07FCD7
:1002E00046EA0C062037B6FBF4FCA7EB0507103FE7
:1002F00007F01F0BCBF120060CFA0BFB2CFA06F6CD
:1003000044BFB3460026202FA4BF5E464FF0000B2B
:100310005BEA060C08BF4FF0010B19EB0B09ABFBB6
:10032000027C48EB0608C01B06FB02CC0BFB03CC8F
:1003300071EB0C01C1E70B46024641464846BDE859
:10034000F08B13B54FF000004FF00001AFF30080C9
:10035000BDE81C40704710B5203AC0F00B80B1E8F2
:100360001850203AA0E81850B1E81850A0E81850EA
:10037000BFF4F5AF5FEA027C24BFB1E81850A0E8F3
:10038000185044BF18C918C0BDE810405FEA827C0D
:1003900024BF51F8043B40F8043B08BF7047D20724
:1003A00028BF31F8023B48BF11F8012B28BF20F8C5
:1003B000023B48BF00F8012B70474FF000020429B0
:1003C000C0F0128010F0030C00F01B80CCF1040C84
:1003D000BCF1020F18BF00F8012BA8BF20F8022BB8
:1003E000A1EB0C0100F00DB85FEAC17C24BF00F85E
:1003F000012B00F8012B48BF00F8012B70474FF08C
:10040000000200B5134694469646203922BFA0E864
:100410000C50A0E80C50B1F12001BFF4F7AF090770
:1004200028BFA0E80C5048BF0CC05DF804EB890061
:1004300028BF40F8042B08BF704748BF20F8022BA4
:1004400011F0804F18BF00F8012B704770477047BC
:100450007047754600F02CF8AE46050069465346D5
:1004600020F00700854618B020B5FFF7EBFEBDE889
:1004700020404FF000064FF000074FF000084FF00B
:10048000000B21F00701AC46ACE8C009ACE8C0099C
:10049000ACE8C009ACE8C0098D46704710B5044609
:1004A000AFF300802046BDE81040FFF7B6BE000065
:1004B000004870479803002001491820ABBEFEE7B2
:1004C000260002007047FEE7014800F006BA00006F
:1004D0005401002038B50E4C4FF4007525600025FE
:1004E000A560E560082525610A4C050A2570607045
:1004F000080AA070E170100A20716271180AA071D8
:10050000E3716B4622460249034800F086F838BD85
:100510009C0000201000002054010020014800F041
:100520006BBC0000D8020020014800F065BC000050
:1005300038030020014800F05FBC000018020020D2
:10054000014800F059BC000078020020016818231F
:10055000CAB2103AB2FBF3F2054B6FF30901032A5A
:100560009B5CC36500D9091D816508467047000082
:100570009E2D000810B5014600208B698A6A4FF055
:10058000C07453B1B3F5005F15D072B1012A0CD01D
:10059000022A0AD0032A09D104E01AB1012A06D09E
:1005A000022A03D1C96AC90100D5012010BDC96A58
:1005B000A142FAD010BD002AF7D0012AF2D0022AB7
:1005C000F3D0032AF3D010BD30B50468256825F4B4
:1005D00080252560046863608368402B036803D02E
:1005E00099600068C26030BD9A600068C16030BD2B
:1005F000704772B6FEE790F82020012A07D0022A41
:1006000005D0416A41F480214162012070470068B1
:1006100042690A43426100207047F0B590F82050CB
:100620000468A468012D05D0022D03D0416A41F46D
:1006300080214DE014F0406F01D1E50045D5C4F3B1
:1006400001640125A5401D608D684FF4C0739DB104
:10065000CE6835434E6845EAC605066803EB0417C5
:10066000F5514FF4C275076805EB04150E697E510C
:10067000097D012905D009E00E88CD6845EA465577
:10068000EBE701684E5946F480764E511179D2F865
:1006900005504FF4C67641EA0521056806EB0416BD
:1006A000A9511178D2F801204FF4C47541EA022112
:1006B000026805EB04155151006803EB0411425820
:1006C00042F0010242500020F0BD416A41F40011A5
:1006D00041620120F0BD000010B590F82020012AF1
:1006E00007D0022A05D0416A41F4802141620120ED
:1006F00010BD3B48D0F8002242F00102C0F80022B1
:10070000D0F8002222F47C52C0F80022D0F8002257
:100710004B6A42EA0322C0F800220A7D02F01F035E
:1007200001229A40D0F81C329343C0F81C32CB69A6
:10073000B3B9D0F80C329343C0F80C328C894B68B3
:1007400064F31F434C6900EBC404C4F840320C89C5
:100750000B6864F31F434C6900EBC404C4F84432D3
:10076000CB69012B16D1D0F80C321343C0F80C32F0
:100770000C884B6864F31F434C6900EBC404C4F855
:1007800040320C89CB6864F31F434C6900EBC4040E
:10079000C4F844328B69002BD0F804320ED01343D6
:1007A000C0F804320B69002BD0F8143208D0134380
:1007B000C0F81432096A012904D008E09343EFE736
:1007C0009343F5E7D0F81C121143C0F81C12D0F87F
:1007D000001221F00101C0F80012002010BD00003D
:1007E00000640040704770B590F82040012C05D09F
:1007F000022C03D0416A41F4802128E0046809B347
:100800002469A40720D04FF4D874056804EB0114C0
:100810002D5915F00405956005682D591AD0ED087D
:10082000556005682C5904F00204D4604FF4DA7462
:10083000056804EB01142E5906F00F06082E0CD3A0
:1008400008250DE0E468DCE7416A41F400114162EB
:10085000012070BD6D0D1560E3E72D5905F00F0502
:10086000156105682D59C5F30725956105682C5953
:10087000240C54614FF4DC72046802EB0112A4589A
:100880001C700468A458240A5C700468A458240CE2
:100890009C700468A258120EDA704FF4DE7204687D
:1008A00002EB0112A4581C710468A458240A5C715C
:1008B0000468A458240C9C710468A258120EDA71C2
:1008C000006829B1016941F020010161002070BD7B
:1008D000C16841F02001C160F8E72DE9F05F0546ED
:1008E000006800244669D0F804908768D0F80CB0FE
:1008F000D0F810A0D0F81880F10748D0F90714D02C
:1009000001218160B80703D5284600F014FA0CE0F5
:10091000780702D54FF4006407E0380702D54FF49A
:10092000805402E0284600F005FAF80516D529683B
:100930004FF480708860B80503D5284600F0FDF9B3
:100940000CE0780502D544F4005407E0380502D5E0
:1009500044F4804402E0284600F0EEF9F80316D58E
:1009600029684FF480308860B80303D5284600F02A
:10097000E6F90CE0780302D544F4004407E03803BC
:1009800002D544F4803402E0284600F0D7F930075D
:1009900007D55FEACB6004D52968102044F40074C1
:1009A000C86070074FF0080707D55FEA0B7004D5E1
:1009B0002868C760284600F057F9B00706D52868B0
:1009C000C068800702D0284600F050F9700607D5AD
:1009D0005FEACA6004D52968102044F48064086185
:1009E000B00607D55FEA0A7004D528680761284673
:1009F00000F070F9F00606D528680069800702D07B
:100A0000284600F068F9B00308D55FEAC96005D54B
:100A1000296810204860284600F05EF9F00307D5E9
:100A20005FEA097004D528684760284600F088F915
:100A3000300446D55FEA497040D5F00504D55FEA39
:100A4000C87001D044F00104B00504D55FEA887095
:100A500001D544F00204700504D55FEA487001D561
:100A600044F00404300529D518F0700F26D008F0A2
:100A70007000402815D006DC102809D020280AD0A4
:100A8000302816D10AE050280ED0602811D10EE08F
:100A900044F008040DE044F010040AE044F020049F
:100AA00007E044F0400404E044F0800401E044F432
:100AB00080742868816921F07001816129680420AF
:100AC0004860002C05D0686A204368622846FFF71A
:100AD00089FEBDE8F09F70B5040003D094F82000B3
:100AE00010B104E0012070BD204600F081F82068BC
:100AF000016841F00101016000F0E8FB05460526B0
:100B000004E000F0E3FB401B0A2811D8206840688D
:100B1000C007F6D02068016821F00201016000F0F2
:100B2000D5FB05460BE000F0D1FB401B0A2806D997
:100B3000606A40F40030606284F82060D2E7206888
:100B400040688007EFD4207E0128206801683DD0EE
:100B500021F080010160607E01282068016838D0A2
:100B600021F040010160A07E01282068016833D097
:100B700021F020010160E07E0128206801682ED06C
:100B800041F010010160207F01282068016829D010
:100B900021F008010160607F01282068016824D0ED
:100BA00021F004010160D4E902010843D4E90412F0
:100BB000114308436168491E08432168C861002049
:100BC0006062012084F82000002070BD41F08001A7
:100BD000C0E741F04001C5E741F02001CAE721F03C
:100BE0001001CFE741F00801D4E741F00401D9E753
:100BF00010B586B0044614216846FFF700FC17497B
:100C00002068884227D116480021026842F000720D
:100C10000260006800F0007005901148103802680A
:100C200042F0080202600068022200F0080005900D
:100C30000320CDE90210CDE90002092004906946A5
:100C4000084800F04BFA00220121142000F0ACFB10
:100C5000142000F09BFB06B010BD000000640040B3
:100C600040380240000C02407047000030B58BB0A5
:100C7000044601AB03AA0021FFF7B5FD0398A0F2DB
:100C8000012006281CD8114BC0B21149187000EB86
:100C9000800001EB400231F810501581BDF804507E
:100CA0006DBA21F81050BDF8060040BA5080BDF86A
:100CB000080040BA90809DF80A00907148885880DA
:100CC00002212046FFF797FC0BB030BD000000204A
:100CD00050000020704770477047000070B5044610
:100CE00090F82000012804D0606A40F4002060627F
:100CF00018E0022084F820002068016821F001013A
:100D0000016000F0E3FA05460EE000BF00F0DEFAF5
:100D1000401B0A2808D9606A40F400306062052050
:100D200084F82000012070BD20684068C007EDD124
:100D3000606270BD7047704770477047704770477A
:100D400070472DE9F0410446876D00F0BFFA064672
:100D500094F835000025022806D08020606584F8CC
:100D600034500120BDE8F0812068016821F01601AF
:100D700001602068416921F080014161206C08B95F
:100D8000A06C20B12068016821F008010160206892
:100D9000016821F0010101600CE000F097FA801B6E
:100DA000052807D920206065032084F8350084F8E1
:100DB0003450D7E720680068C007EED194F85C1083
:100DC0003F208840B860012084F8350084F8345012
:100DD0000020C7E790F83510022903D08021416533
:100DE00001207047052180F835100068016821F066
:100DF00001010160002070472DE9F84304464FF0DF
:100E00000009CDF8009063484FF41651A56D0068B5
:100E1000B0FBF1F72E6894F85C10082000FA01F19D
:100E200031420FD021680A6852070BD50A6822F0B8
:100E300004020A6094F85C108840A860606D40F07D
:100E40000100606594F85C104FF0010808FA01F0A9
:100E5000304208D021684969090604D5A860606D50
:100E600040F00200606594F85C1004208840304235
:100E700008D021680968890704D5A860606D40F032
:100E80000400606594F85C1010208840304218D04F
:100E900021680968090714D5A8602068016849031A
:100EA00004D50068000308D5A16C07E00168C905F6
:100EB00003D4016821F008010160216C09B12046CA
:100EC000884794F85C1020208840304231D0216857
:100ED0000968C9062DD5A86094F835000528206852
:100EE000016806D0490347D5006800031DD4616C32
:100EF0001CE021F0160101602068416921F08001A9
:100F00004161206C08B9A06C20B12068016821F013
:100F10000801016094F85C103F208840A86084F8C4
:100F2000358084F83490216D1FE0E16B09B12046D3
:100F30008847606D00282BD0606DC00714D0052055
:100F400084F835002068016821F0010101600098F3
:100F5000401C0090B84203D820680068C007F6D152
:100F600084F8358084F83490E16C002910D001B009
:100F70002046BDE8F04308470168C905D5D401689B
:100F800021F01001016084F8358084F83490CCE7BA
:100F9000BDE8F8834C0000202DE9F041044600F044
:100FA00095F906465CB1022084F83500002584F8E6
:100FB00034502068016821F0010101600DE001203A
:100FC000BDE8F08100F082F9801B052805D92020BA
:100FD0006065032084F83500F2E720680068C007E8
:100FE000F0D12268116820480140D4E90103184378
:100FF000D4E903363343184363691843A36918439C
:10100000E3691843236A18430843616A042903D13A
:10101000D4E90B1319430843106020684069666ADD
:1010200020F0070130460E43012704280CD1A06AA6
:101030000643E06A40B12046FFF79CFA20B1402009
:10104000606584F83570BAE7206846612046FFF78E
:101050007DFA94F85C203F2191408160656584F8B9
:1010600035700020ACE700003F8010F02DE9F04122
:101070000446866D90F83400002501280DD001202B
:1010800084F8340094F835700020012F07D084F8DC
:10109000340002252846BDE8F0810220FBE7022744
:1010A00084F8357060652046FFF78EFA94F85C107E
:1010B0003F208840B0602068016841F0160101605F
:1010C000206C20B12068016841F0080101602068AF
:1010D000016841F001010160DCE700002DE9F84FF3
:1010E000DFF8BCA10022012503264FF00F090AF109
:1010F000040BAAF1040E00BF0B6805FA02F42340AA
:10110000A34270D10F7907F00307012F01D0022FFE
:1011100016D187684FEA420806FA08FC27EA0C074E
:10112000D1F80CC00CFA08FC4CEA070CC0F808C057
:101130004768A7430C79C4F3001494403C434460CF
:101140000C79E443A4070AD0C4684FEA420C06FABB
:101150000CF7BC438F6807FA0CF72743C7600C797C
:1011600004F00304022C12D1D40800EB840CDCF848
:1011700020405707FF0E09FA07F824EA0804D1F8BF
:10118000108008FA07F848EA0408CCF820800468C0
:101190004FEA420C06FA0CF7BC430F7907F003073D
:1011A00007FA0CF7274307604C6814F4403F70D0EF
:1011B0003C4C276847F480472760246822F00307E7
:1011C00004F480440094384C07EB040CDCF8084825
:1011D00097074FEA177809FA08F7BC43334FB8422C
:1011E00002D1002724E054E0314FB84201D1012759
:1011F0001EE0304FB84201D1022719E02E4FB8420D
:1012000001D1032714E02D4FB84201D104270FE08C
:101210002B4FB84201D105270AE02A4FB84201D12D
:10122000062705E0284FB84201D1072700E008272C
:1012300007FA08F72743CCF80878DAF80040574651
:10124000D1F804C09C435FEACC2C00D51C433C6021
:10125000DBF800405F46D1F804C09C435FEA8C2C69
:1012600000D51C433C60DEF800407746D1F804C04E
:101270009C435FEA8C3C00D51C433C60084F083F10
:101280003C68D1F804C09C435FEACC3C00D51C43C9
:101290003C60521C102AFFF42FAFBDE8F88F00000D
:1012A000083C014044380240003001400000024048
:1012B0000004024000080240000C024000100240FE
:1012C0000014024000180240001C024001488068DF
:1012D00070470000400000200248816802781144F5
:1012E00081607047400000200B4810B5016841F450
:1012F00000710160016841F480610160016841F49E
:1013000080710160032000F06FF80F2000F006F8F4
:1013100000F024F8002010BD003C024070B50D4DD7
:1013200004464FF47A712878B1FBF0F00A49096855
:10133000B1FBF0F000F00CFB48B9102C07D20022F2
:101340002146501E00F030F800206C6070BD012076
:1013500070BD0000400000204C0000200A4808B585
:10136000016841F480410160006800F48040009011
:101370000548001F016841F080510160006800F0DD
:101380008050009008BD000044380240002809DB6E
:1013900000F01F02012191404009800000F1E0208F
:1013A000C0F8001170470000F0B40E4B1B680C46EB
:1013B000C3F30223C3F10705042D00D90425191D29
:1013C000072901D2002300E0DB1E012606FA05F101
:1013D000491E214099409E40761E16403143F0BC84
:1013E00001F0ABB90CED00E0064900F00702086817
:1013F0004FF6FF03184040EA0220034A10430860FA
:10140000704700000CED00E00000FA052DE9F04700
:101410000E46050065D0DFF81481D8F80000F7B259
:1014200000F00700B04207D288F80070D8F800003A
:1014300000F00700B04254D128683D4C810712D516
:10144000400703D5206840F4E0502060287800076A
:1014500003D5206840F4604020602068A96820F02F
:10146000F000084320602878C0072DD03049686814
:101470000839012812D0022813D0032811D0096896
:10148000890700292DDA216821F003010143216039
:10149000FFF71CFF814641F2883A0EE00968890394
:1014A000EFE709688901ECE7FFF710FFA0EB0901FE
:1014B000514502D90320BDE8F0872068696800F033
:1014C0000C00B0EB810FEFD1D8F80010404601F0CE
:1014D0000701B14207D90770006800F00700B04269
:1014E00001D00120E7E72878400705D52068E968A2
:1014F00020F4E050084320602878000706D52068D3
:10150000296920F4604040EAC100206000F038F80A
:101510002168084AC1F30311515CC84006490860BC
:1015200006480068FFF7FAFE0020C4E7003C0240CE
:1015300008380240A62D00084C000020440000207E
:101540000448054900680968044AC1F38221515CD6
:10155000C84070474C00002008380240B62D0008F3
:101560000448054900680968044AC1F34231515CE6
:10157000C84070474C00002008380240B62D0008D3
:10158000154810B5006810F00C02144813D0144927
:10159000042A0FD0082A0ED10F4C241F226823687A
:1015A00002F03F025B0207D52068C0F38810A0FB61
:1015B000010106E0084610BD2168C1F38811A1FBB6
:1015C00000010023FEF750FE2168C1F30141491CD0
:1015D0004900B0FBF1F010BD083802400024F400CF
:1015E000001BB7002DE9F84F04006ED02078DFF81B
:1015F0004C93C007A9F104054AD009F10400016821
:10160000C1F38101012908D00068C0F381000228DC
:101610000AD1D9F80000400206D52868800337D5E2
:1016200060680028E1D033E06068B0F5803F10D0FA
:10163000B0F5A02F286810D020F4803028602868EA
:1016400020F4802028606068A8B1FFF73FFE0646BE
:101650000DE0286840F48030F4E740F480202860F2
:10166000F7E700BFFFF732FE801B642873D82868B5
:101670008003F7D50CE0FFF729FE064605E000BF22
:10168000FFF724FE801B6428F0D828688003F7D475
:101690002078DFF8AC8280074FF0000A3ED5A748DB
:1016A000001D016811F00C0F08D00068C0F3810024
:1016B00002280BD1D9F80000400207D4286880071F
:1016C00016D5E068012800D112E033E1E068B8B136
:1016D0000120C8F80000FFF7F9FD064605E000BF4D
:1016E000FFF7F4FD801B0228C0D828688007F7D5D3
:1016F0002868216920F0F80040EAC10028600DE068
:10170000C8F800A0FFF7E2FD064604E0FFF7DEFDA3
:10171000801B02281FD828688007F7D4207800078C
:1017200022D5864F87486169703771B10121016008
:10173000FFF7CCFD064604E0FFF7C8FD801B02283A
:1017400009D838688007F7D50EE0C0F800A0FFF789
:10175000BDFD064605E082E0FFF7B8FD801B0228CC
:101760007DD838688007F7D42078400768D5DFF83F
:10177000CCB100270BF13C0BDBF80000C0000BD410
:10178000DBF8001041F08051CBF80010DBF80000CE
:10179000012700F0805000906B4E3068C00510D4D7
:1017A000306840F480703060FFF790FD009005E0F5
:1017B000FFF78CFD0099401A022850D83068C00508
:1017C000F6D55E4EA0686C3601280FD0052830682B
:1017D00010D020F001003060306820F0040030604C
:1017E000A068B8B1FFF772FD00900FE0306840F0DC
:1017F0000100F4E740F004003060F7E7FFF766FD12
:101800000099411A41F28830814266D830688007D9
:10181000F4D50EE0FFF75AFD009007E0FFF756FD04
:101820000099411A41F28830814256D830688007C9
:10183000F4D42FB1DBF8001021F08051CBF8001068
:10184000A069C8B33D49091D0968C1F38101022996
:101850004AD00228504607D0C8F8600000E03CE0BB
:10186000FFF734FD04463BE04746C8F86000FFF749
:101870002DFD064605E000BFFFF728FD801B02286E
:101880002BD828688001F7D4D4E907010843A16A5E
:101890002E4A490802EB0141626A41EA821108437B
:1018A00094F82C1040EA0161C9F800100120386654
:1018B000FFF70CFD044606E03EE000BFFFF706FD23
:1018C000001B022809D828688001F7D534E000BF42
:1018D000FFF7FCFC001B022802D90320BDE8F88FAB
:1018E00028688001F4D427E00128F7D0D9F8000057
:1018F000E26900F4800191421CD1226A00F03F01AC
:10190000914217D147F6C071626A0140B1EB821F64
:1019100010D1A26A4FF0FF3300F4403103EB5202C2
:10192000B1EB024F06D194F82C1000F07060B0EBD0
:10193000016F01D00120D1E70020CFE70438024039
:1019400000004742800E4742007000400000FFFF49
:1019500010B5401EB0F1807F01D3012010BD4FF0C3
:10196000E02460610F21601700F0E7FE0020A06115
:1019700007202061002010BD70477047F8B501684E
:1019800004460868CA684B6910F00F0F4FF0000555
:1019900059D003F0010602F49077374365D0C107B0
:1019A00005D0D10503D5616C41F0010161644107A7
:1019B00005D5D90703D0616C41F00201616481074C
:1019C00005D5D90703D0616C41F0040161640107BA
:1019D00007D502F02001314303D0616C41F00801CA
:1019E0006164616C00293AD0800604D5900602D566
:1019F000204600F05EFD20684069616CC0F38010F5
:101A0000090700D460B3204600F01EFD206840693D
:101A1000400621D52068143050E8001F21F0400115
:101A200040E80012002AF5D1E06BA8B172490165C7
:101A3000E06BFFF7CFF9002811D0E06B016D01B02A
:101A4000BDE8F040084783060FD593060DD5204624
:101A5000BDE8F84000F02DBD2046FFF78EFFF8BD31
:101A60002046FFF78AFF6564F8BD266B2023012E10
:101A70007ED1C6067CD5D6067AD50868486800901F
:101A800048694FF0020640064DD5E26B1068406889
:101A90004FF480770004000C3AD0A18D814237D9F1
:101AA000E085D069B8422DD020680C3050E8001F86
:101AB00021F4807140E80012002AF5D1206814302A
:101AC00050E8001F21F0010140E80012002AF5D182
:101AD0002068143050E8001F21F0400140E8001257
:101AE000002AF5D184F84230256320680C3050E894
:101AF000001F21F0100140E80012002AF5D1E06B30
:101B0000FFF71FF96663A08DE18D401A81B206E0F0
:101B1000A18D8142A8D1D069B842A5D16663204683
:101B2000FFF72AFFF8BDA08DE18D401A81B2E08D4C
:101B30000028F7D00029F5D020680C3050E8002F9D
:101B400022F4907240E80027002FF5D1206814306D
:101B500050E8002F22F0010240E80027002FF5D1C5
:101B600084F84230256320680C3050E8002F00E0F4
:101B700006E022F0100240E80023002BF3D1CDE76D
:101B800005062BD5150629D594F841002128C9D181
:101B9000A068B0F5805F01D12069B0B1206A411C16
:101BA0002162216800784860E08C401E0004000C2F
:101BB000E084B7D12068C16821F08001C16020684D
:101BC000C16841F04001C160F8BD206A0088C0F3DF
:101BD00008004860206A801C2062E5E74006F3D5D3
:101BE0005006F1D5CA68204622F04002CA6084F847
:101BF000413000F0A3F9F8BD0123000870B50400DE
:101C000004D094F84100002510B106E0012070BD19
:101C100084F84050204600F023F8242084F8410046
:101C20002068C16821F40051C160204600F0A2FC88
:101C30002068016921F4904101612068416921F027
:101C40002A0141612068C16841F40051C1606564A6
:101C5000202084F8410084F842006563002070BDB4
:101C60002DE9F04F87B0044614216846FEF7C7FB04
:101C7000DFF86CC1022126685A4803220723002599
:101C80008F064FF4807A4FF0400B4FF48069664521
:101C90004DD1544E1436D6F800C04CF0100CC6F896
:101CA00000C0366806F010060596066846F0020683
:101CB0000660006800F002000590C0208DE8230057
:101CC00069464948CDE90323FFF708FA484E4748DB
:101CD000C8463060C6E90175C6E903597561C6E9B1
:101CE000065A356230467562FFF756F908B1FEF7BD
:101CF00080FCE663B4633E4E3C4860367830C6E90B
:101D000003587561B561F5613562756286E88108D1
:101D10003046FFF741F908B1FEF76BFCA6630022DD
:101D200002212520B463FFF73FFB252052E0DFF8B6
:101D3000C4C0664550D12B4E1036D6F800C04CF4C6
:101D4000802CC6F800C0366806F480260596066822
:101D500046F004060660006800F0040005904FF4A9
:101D600040608DE8230069462348CDE90323FFF74F
:101D7000B5F91F4E2148C036B8463060C6E9017536
:101D8000C6E903597561C6E9065A35624F463046C1
:101D90007562FFF701F908B1FEF72BFCE663B46347
:101DA000174E1648C6E903577561B561F56135628E
:101DB0003030756286E801093046FFF7EDF808B16A
:101DC000FEF717FCA663002211462720B463FFF735
:101DD000EBFA2720FFF7DAFA07B0BDE8F08F000032
:101DE00000100140303802400004024040640240CC
:101DF000180200200048004000080240286002400D
:101E00003803002090F84230202B01D00220704788
:101E100021B11AB10023036300F032BC01207047E6
:101E200010B500681C49884218D11C4801780F2958
:101E300003D1007E48B1FF2807D020211848FEF7C3
:101E4000BCFA19221549174821E01549134800F03A
:101E5000DBFE1549124800F0A7FCF2E7134988425F
:101E600019D100F089FE124A0020111D135C00EE0A
:101E7000103A01EB8003401CB8EE400A032883EDC2
:101E8000000AF3DB07490922543901F10C00BDE8CF
:101E90001040FFF7B7BF10BD00480040D40000203D
:101EA000B4000020D0010020F0000020001001400C
:101EB000300000207047000070B5044690F84100E3
:101EC000202801D0022070BD01B3FAB12162A284A2
:101ED000E28400206064212384F84130A56B144B18
:101EE000EB63A56B134B2B64A56B134BEB64A36BDC
:101EF000186520681346A56B021D2846FFF7B6F843
:101F000030B110206064202084F84100012070BDB1
:101F100021686FF0400008602068143050E8001F0E
:101F200041F0800140E80012002AF5D1002070BD88
:101F3000FD2300083F2400080F2300087047704766
:101F4000FEE700000F4810B50D4901600621416011
:101F500000214FF400328160C0E903121201426196
:101F6000017641768176C17601774177FEF7B3FD40
:101F7000002803D0BDE81040FEF73BBB10BD0000B9
:101F80000064004054010020194808B5016841F47C
:101F900000110160016801F400110091016841F431
:101FA000800101600068002200F48000009011466A
:101FB0000C20FFF7F9F90C20FFF7E8F90022114691
:101FC0000E20FFF7F1F90E20FFF7E0F9002211468D
:101FD0003A20FFF7E9F93A20FFF7D8F90022114635
:101FE0004620FFF7E1F9BDE808404620FFF7CEB9EB
:101FF00030380240154808B5016841F00101016020
:10200000016801F001010091016841F002010160E5
:10201000016801F002010091016841F008010160CE
:10202000016801F008010091016841F004010160BC
:10203000016801F004010091016841F08001016034
:10204000006800F08000009008BD000030380240B9
:102050000C4810B50A4901604FF4E131416000219C
:1020600081600C22C160C0E904128161C161FFF787
:10207000C5FD002803D0BDE81040FEF7BABA10BD78
:1020800000100140880100200E4810B50C49016085
:102090000D4941604FF48051816000214FF480620E
:1020A000C0E903120C22C0E90521C161FFF7A6FDBA
:1020B000002803D0BDE81040FEF79BBA10BD000019
:1020C00000480040D0010020A0860100FEE7FEE7A6
:1020D000A0B1D0ED101AC0ED111A90ED0F1A80EDDD
:1020E000101AC0ED060A80ED070A30EEC00A80ED36
:1020F0000F0A017829B101293BD078E09FED3D0A14
:102100007047D0ED010A60EE801AC0ED091AD0EDDB
:102110000A0A90ED022A42EE000A30EE410AC0EDB2
:102120000A0A90ED0D2A80ED0E2A90ED0C2A80ED22
:102130000D2A80ED0C0A90ED031A21EE001A80EDB5
:102140000B1A90ED050AF4EEC00AF1EE10FA09DC64
:10215000B1EE400AF4EEC00AF1EE10FA02D390EDAF
:102160000A0A01E080ED0A0A31EE800A30EE010A27
:102170002BE070EE410A90ED012A20EE822A80EDDC
:10218000092AD0ED020A60EE800AC0ED0A0AD0EDFD
:102190000D2A72EE200AC0ED0E2AD0ED0C2AC0EDF9
:1021A0000D2AF0EE002A01EE620A30EE210A80EDDF
:1021B0000C0A90ED031A21EE000A80ED0B0A30EEB6
:1021C000800AD0ED080A30EE200A80ED080AD0ED32
:1021D000040AB4EEE00AF1EE10FA06DCF1EE600A51
:1021E000B4EEE00AF1EE10FA01D2C0ED080A90ED6B
:1021F000080A704700000000002828D0002A26D0D6
:10220000017092ED001A80ED011A92ED011A80ED35
:10221000021A92ED021A80ED031A80ED040A9FED76
:102220000C0AC0ED050A80ED0E0A80ED0D0A80ED66
:102230000C0A80ED080A80ED0B0A80ED0A0A80ED99
:10224000090A80ED110A80ED100A80ED0F0A70472F
:102250000000000070477047FFF73EB830B593B0FC
:1022600030216846FEF7CBF814210CA8FEF7C7F81A
:102270001D480025016841F080510160006800F0B0
:10228000805011901948016841F480410160006854
:10229000022400F48040119001200390102004904B
:1022A000009406940820CDE90750A820CDE9090440
:1022B00004200B906846FFF795F908B172B6FEE767
:1022C0000CA90F2081E831004FF4A0500F904FF47B
:1022D0008050109005210CA8FFF798F8002801D035
:1022E00072B6FEE713B030BD4038024000700040C7
:1022F0000248016841F470010160704788ED00E018
:1023000010B5806B0021C185FFF737FB10BD70B59C
:10231000846B2068406994F84110C0F3C010002518
:10232000212904D118B1E584204600F0B4F82068D2
:10233000406994F84210C0F38010222904D118B1EA
:10234000E585204600F080F8606C40F01000606485
:102350002046FFF712FB70BD10B50146806B09687F
:1023600009684FF00002C9052ED4C28501680C31FE
:1023700051E8003F23F4807341E80034002CF5D18C
:102380000168143151E8003F23F0010341E80034B3
:10239000002CF5D10168143151E8003F23F04003CF
:1023A00041E80034002CF5D1202180F84210016B67
:1023B000012909D101680C3151E8003F23F01003D5
:1023C00041E80034002CF5D14263016B012902D0B1
:1023D000FFF726FD10BD818DFFF7CEFA10BD10B5B9
:1023E000806B01214163016B012902D0FFF762FD7F
:1023F00010BD818D4908FFF7BFFA10BD10B5014629
:10240000806B09680968C90516D40021C184016878
:10241000143151E8002F22F0800241E80023002B04
:10242000F5D101680C3151E8002F42F0400241E83B
:102430000023002BF5D110BDFFF780FD10BD10B5B6
:10244000806BFFF77CFD10BD01680C3151E8002F57
:1024500022F4907241E80023002BF5D10168143179
:1024600051E8002F22F0010241E80023002BF5D1B2
:10247000016B012909D101680C3151E8002F22F0CC
:10248000100241E80023002BF5D1202180F84210F2
:1024900000210163704701680C3151E8002F22F0E0
:1024A000C00241E80023002BF5D1202180F8411023
:1024B000704708B590F84210222901D0022008BDCB
:1024C00082684FF480539A4201D1016921B1816A37
:1024D0009A421BD04AB10AE00268816A5268C2F38C
:1024E00008020A80816A891C08E0026972B10268E8
:1024F000526802F07F020A70816A491C8162C18DB4
:10250000491E0904090CC18503D01BE0026852680A
:10251000F1E70168CA6822F02002CA600168CA684F
:1025200022F48072CA6001684A6922F001024A619D
:10253000202180F8421000214163026B012A03D060
:10254000FFF76EFC002008BD016301680C3151E803
:10255000002F22F0100241E80023002BF5D1016882
:102560000A68D20602D50A6849680091818DFFF792
:1025700003FAE7E770B5044600680169E26821F4F0
:102580004051114301612169A068E2690843616912
:10259000114308432168CA6849F20C639A43024315
:1025A000CA6020684169A26921F440711143416108
:1025B00031492068884202D03049884202D1FEF772
:1025C000CFFF01E0FEF7BCFFE2690023192164257B
:1025D0003226B2F5004F626828D0A0FB0101930FAC
:1025E0009200FDF741FE0146B0FBF5F06FF01802D6
:1025F000504301EB800006EB0010B0FBF5F000F05B
:10260000F002B1FBF5F002EB0012B1FBF5F06FF058
:102610001803584301EB800006EB0010B0FBF5F007
:1026200000F00F0021681044886070BDA0FB01011C
:1026300092185B41FDF718FE0146B0FBF5F0020170
:10264000B1FBF5F06FF01803584301EB800006EB87
:10265000C000B0FBF5F000F0F80002EB4002B1FB67
:10266000F5F0584301EB800006EBC000B0FBF5F03D
:1026700000F00700D6E70000001001400014014000
:1026800038B58162044682850020134660642222A8
:1026900084F84220E56B1F4AEA63E56B1E4A2A6410
:1026A000E56B1E4AEA64E26B10650A462168E06B3E
:1026B000091DFEF7DBFC30B110206064202084F897
:1026C0004200012038BD2068016840680090206900
:1026D00048B120680C3050E8001F41F4807140E898
:1026E0000012002AF5D12068143050E8001F41F094
:1026F000010140E80012002AF5D12068143050E8AA
:10270000001F41F0400140E80012002AF5D10020EE
:1027100038BD000059230008DF2300080F230008FC
:102720000148FFF72BB90000880100200148FFF79E
:1027300025B90000D0010020FEE70907090E002896
:1027400004DB00F1E02080F80014704700F00F0077
:1027500000F1E02080F8141D7047000000B58BB038
:1027600000200121CDE9060108910090019002901E
:1027700003900590049069460548FDF7ADFF0448B5
:10278000FEF7ACFA02210248FDF735FF0BB000BDA1
:102790005401002003460120002201E05843521C4E
:1027A0008A42FBDB7047000010B5428800EE102A19
:1027B000F8EE400A9FED570AC28801EE102A70EE2B
:1027C000C00AB8EE411A31EE401A9FED530ADFED10
:1027D000532A10EE902A524C524BA24205D210EED0
:1027E000902A9A4201DAF0EE400A11EE102AA24233
:1027F00005D211EE102A9A4201DAB0EE401AF0EE3C
:10280000401AC1ED001AC1ED011AC1ED021AC1ED65
:10281000031A438840F22754DFED431A434A9FEDE1
:10282000442AA3F26913A34217D260EEA10A414CD5
:1028300010EE903AA34202DDF0EE620A05E010EEDF
:10284000903A934201D9F0EE420AC1ED000AC1ED7F
:10285000010AC1ED020AC1ED030AC388B3F5B47FD2
:1028600014D94088B0F5D26F10D221EE210A324C33
:10287000324B10EE100AA04202DD9FED310A05E056
:1028800010EE100A984201D99FED2E0AB5EEC00A4B
:10289000F1EE10FA1BDDD1ED000A70EE800AC1EDF9
:1028A000000A91ED011A10EE900A31EE001A9042E2
:1028B00081ED011A01D9F0EE420A11EE100AC1EDC4
:1028C000000A904201D9B0EE421A81ED011AB5EE2C
:1028D000C00AF1EE10FA1BD2D1ED020A70EEC00A66
:1028E000C1ED020A91ED031A10EE900A31EE400A92
:1028F000904281ED030A01D9F0EE420A10EE100A6F
:10290000C1ED020A904201D9B0EE420A81ED030AFC
:1029100010BD000000008044000000000000FA45E7
:10292000000020C2000020420000FA400000FAC56A
:102930000000FAC50000FA4500007A4500007AC59B
:1029400000007A4500007AC5B4EEE00AF1EE10FA14
:1029500001D2B0EE600AB4EEC10AF1EE10FA01DD68
:10296000B0EE410A31EE601A30EE600A091AC0EE8C
:10297000010A00EE101A0E49B8EEC01A00EE100A55
:10298000B8EEC00A00EE810AF6EE000A30EE200A28
:10299000BDEEC00A10EE100A00B2884201DA084605
:1029A0007047B0F5004FFBDB47F6FF707047000043
:1029B0000080FFFF00F00300024900EB800001EB04
:1029C000400070475000002086B0FEF78DFCFFF7F6
:1029D00045FCFFF70FFBFFF7D7FAFFF7B3FAFFF756
:1029E00037FBFFF751FB092238493948FFF70AFA4C
:1029F000192238493848FFF705FA3448DFED370A1D
:102A00009FED370A374A00210C30FFF7F5FBFFF73F
:102A1000A5FEFEF75BFC0446FEF758FC001B0A28E7
:102A2000FAD300200A34FFF7C5FFB0F902002E4D9B
:102A300000EE100A0120B8EEC00A85ED000AFFF78B
:102A4000B9FFB0F9020000EE100A0220B8EEC00A89
:102A500085ED010AFFF7AEFFB0F9020000EE100AA3
:102A60000320B8EEC00A85ED020AFFF7A3FFB0F914
:102A7000020000EE100A05F11000B8EEC00A85ED64
:102A8000030A00F03DF805F11000B0F90630B0F986
:102A90000420B0F90210B0F90000FDF71BFD00237F
:102AA00005461A4619463220FDF714FD4DB1142291
:102AB0000EA16846FDF74FFC122269460448FFF755
:102AC000FBF9002000F030F9A6E70000000100202B
:102AD00088010020D4000020D00100200080BB45E8
:102AE0000000FA4534000020180000205472616E86
:102AF000736D6974204661696C6564210D0A00007C
:102B000070B51A4D1A4E0446D5ED000A96ED000A2E
:102B10001848FFF7DDFABDEEC00A10EE100A20805B
:102B2000D5ED010A96ED010A1248FFF7D1FABDEE84
:102B3000C00A10EE100A6080D5ED020A96ED020A76
:102B40000C48FFF7C5FABDEEC00A10EE100AA080CF
:102B5000D5ED030A96ED030A0648FFF7B9FABDEE74
:102B6000C00A10EE100AE08070BD0000F0000020E6
:102B7000180000200C0100202DE9F0430026DFF8AA
:102B80008080DFF8809034463746354618F80600D6
:102B9000A0F13001092901D8641C1CE02C2802D0C6
:102BA0000A2829D017E037460FE0611E0A20FFF7F8
:102BB000F1FDA7EB040C19F8053018F80C20303A99
:102BC00002FB003009F80500641E002CEDDC002437
:102BD0006D1C032D12DA761CD8E7611E0A20FFF760
:102BE000D9FD3A1B19F8053018F80220303A02FBDB
:102BF000003009F80500641E002CEEDCBDE8F0830F
:102C00007C010020300000200A4600287ED0002AE7
:102C10007CD001780F2903D020211046FDF7CDBBD1
:102C2000B0F80110C1F30A0111808178C378C90896
:102C300041EA4311C1F30A015180C178037989093E
:102C400041EA8301437941EA8321C1F30A0191807A
:102C500041798379490841EAC311C1F30A01D1805E
:102C60008179C379090941EA0311C1F30A0111818C
:102C7000C179037AC90941EA4301437A41EA032150
:102C8000C1F30A015181417A837A890841EA8311AB
:102C9000C1F30A019181817AC37A490941EAC301EA
:102CA000D1818189C1F30A011182417B837BC908EB
:102CB00041EA4311C1F30A015182817BC37B890937
:102CC00041EA8301037C41EA8321C1F30A01918235
:102CD000017C437C490841EAC311C1F30A01D18256
:102CE000417C837C090941EA0311C1F30A01118384
:102CF000817CC37CC90941EA4301037D41EA032188
:102D0000C1F30A015183017D890800E00BE0437D96
:102D100041EA8311C1F30A019183417D807D490914
:102D200041EAC000D08370470246144808B500EB62
:102D300082004FF4FA5190ED000A48429FED101ABC
:102D4000DFED100AFFF700FEADF800000E4802EBC1
:102D5000820100EB41010D488A780270C978417008
:102D60009DF8001081709DF80110C1700146BDE80A
:102D7000084004220648FFF79FB80000F00000203A
:102D80000000FA450000FAC55000002004000020B1
:102D9000880100204FF04070E1EE100A70470006F5
:102DA00010160006101600000000000000000102CE
:102DB00003040607080900000000010203040000E4
:102DC000E02D00080000002050000000C4010008B1
:102DD000302E000850000020A8090000E001000883
:102DE00000000000000000000000000000000000E3
:102DF00000000000000000000000000000000000D3
:102E000000000000000000000000000000000000C2
:102E1000000000000000A040CDCCCC3DCDCC4C3E0D
:102E20000100000010000000000000000024F40079
:040000050800018965
:00000001FF
